{
	"week5.sol": {
		"Ex4_23": {
			"abi": [
				{
					"inputs": [],
					"name": "funExt",
					"outputs": [
						{
							"internalType": "uint256",
							"name": "",
							"type": "uint256"
						}
					],
					"stateMutability": "pure",
					"type": "function"
				},
				{
					"inputs": [],
					"name": "outPutExt",
					"outputs": [
						{
							"internalType": "uint256",
							"name": "",
							"type": "uint256"
						}
					],
					"stateMutability": "view",
					"type": "function"
				},
				{
					"inputs": [],
					"name": "pub",
					"outputs": [
						{
							"internalType": "uint256",
							"name": "",
							"type": "uint256"
						}
					],
					"stateMutability": "view",
					"type": "function"
				}
			],
			"devdoc": {
				"kind": "dev",
				"methods": {},
				"version": 1
			},
			"evm": {
				"assembly": "    /* \"week5.sol\":71:333  contract Ex4_23 {... */\n  mstore(0x40, 0x80)\n    /* \"week5.sol\":111:112  1 */\n  0x01\n    /* \"week5.sol\":93:112  uint public pub = 1 */\n  0x00\n  sstore\n    /* \"week5.sol\":137:138  2 */\n  0x02\n    /* \"week5.sol\":118:138  uint private pri = 2 */\n  0x01\n  sstore\n    /* \"week5.sol\":166:167  3 */\n  0x03\n    /* \"week5.sol\":144:167  uint internal inter = 3 */\n  0x02\n  sstore\n    /* \"week5.sol\":71:333  contract Ex4_23 {... */\n  callvalue\n  dup1\n  iszero\n  tag_1\n  jumpi\n  0x00\n  dup1\n  revert\ntag_1:\n  pop\n  dataSize(sub_0)\n  dup1\n  dataOffset(sub_0)\n  0x00\n  codecopy\n  0x00\n  return\nstop\n\nsub_0: assembly {\n        /* \"week5.sol\":71:333  contract Ex4_23 {... */\n      mstore(0x40, 0x80)\n      callvalue\n      dup1\n      iszero\n      tag_1\n      jumpi\n      0x00\n      dup1\n      revert\n    tag_1:\n      pop\n      jumpi(tag_2, lt(calldatasize, 0x04))\n      shr(0xe0, calldataload(0x00))\n      dup1\n      0x7defb410\n      eq\n      tag_3\n      jumpi\n      dup1\n      0x8b01e535\n      eq\n      tag_4\n      jumpi\n      dup1\n      0xbfc3ef44\n      eq\n      tag_5\n      jumpi\n    tag_2:\n      0x00\n      dup1\n      revert\n        /* \"week5.sol\":93:112  uint public pub = 1 */\n    tag_3:\n      tag_6\n      tag_7\n      jump\t// in\n    tag_6:\n      mload(0x40)\n      tag_8\n      swap2\n      swap1\n      tag_9\n      jump\t// in\n    tag_8:\n      mload(0x40)\n      dup1\n      swap2\n      sub\n      swap1\n      return\n        /* \"week5.sol\":248:331  function outPutExt() public view returns(uint){... */\n    tag_4:\n      tag_10\n      tag_11\n      jump\t// in\n    tag_10:\n      mload(0x40)\n      tag_12\n      swap2\n      swap1\n      tag_9\n      jump\t// in\n    tag_12:\n      mload(0x40)\n      dup1\n      swap2\n      sub\n      swap1\n      return\n        /* \"week5.sol\":173:243  function funExt() external pure returns(uint){... */\n    tag_5:\n      tag_13\n      tag_14\n      jump\t// in\n    tag_13:\n      mload(0x40)\n      tag_15\n      swap2\n      swap1\n      tag_9\n      jump\t// in\n    tag_15:\n      mload(0x40)\n      dup1\n      swap2\n      sub\n      swap1\n      return\n        /* \"week5.sol\":93:112  uint public pub = 1 */\n    tag_7:\n      sload(0x00)\n      dup2\n      jump\t// out\n        /* \"week5.sol\":248:331  function outPutExt() public view returns(uint){... */\n    tag_11:\n        /* \"week5.sol\":289:293  uint */\n      0x00\n        /* \"week5.sol\":311:315  this */\n      address\n        /* \"week5.sol\":311:322  this.funExt */\n      0xffffffffffffffffffffffffffffffffffffffff\n      and\n      0xbfc3ef44\n        /* \"week5.sol\":311:324  this.funExt() */\n      mload(0x40)\n      dup2\n      0xffffffff\n      and\n      0xe0\n      shl\n      dup2\n      mstore\n      0x04\n      add\n      0x20\n      mload(0x40)\n      dup1\n      dup4\n      sub\n      dup2\n      dup7\n      dup1\n      extcodesize\n      iszero\n      dup1\n      iszero\n      tag_17\n      jumpi\n      0x00\n      dup1\n      revert\n    tag_17:\n      pop\n      gas\n      staticcall\n      iszero\n      dup1\n      iszero\n      tag_19\n      jumpi\n      returndatasize\n      0x00\n      dup1\n      returndatacopy\n      revert(0x00, returndatasize)\n    tag_19:\n      pop\n      pop\n      pop\n      pop\n      mload(0x40)\n      returndatasize\n      not(0x1f)\n      0x1f\n      dup3\n      add\n      and\n      dup3\n      add\n      dup1\n      0x40\n      mstore\n      pop\n      dup2\n      add\n      swap1\n      tag_20\n      swap2\n      swap1\n      tag_21\n      jump\t// in\n    tag_20:\n        /* \"week5.sol\":304:324  return this.funExt() */\n      swap1\n      pop\n        /* \"week5.sol\":248:331  function outPutExt() public view returns(uint){... */\n      swap1\n      jump\t// out\n        /* \"week5.sol\":173:243  function funExt() external pure returns(uint){... */\n    tag_14:\n        /* \"week5.sol\":213:217  uint */\n      0x00\n        /* \"week5.sol\":235:236  2 */\n      0x02\n        /* \"week5.sol\":228:236  return 2 */\n      swap1\n      pop\n        /* \"week5.sol\":173:243  function funExt() external pure returns(uint){... */\n      swap1\n      jump\t// out\n        /* \"#utility.yul\":7:150   */\n    tag_24:\n      0x00\n        /* \"#utility.yul\":95:101   */\n      dup2\n        /* \"#utility.yul\":89:102   */\n      mload\n        /* \"#utility.yul\":80:102   */\n      swap1\n      pop\n        /* \"#utility.yul\":111:144   */\n      tag_26\n        /* \"#utility.yul\":138:143   */\n      dup2\n        /* \"#utility.yul\":111:144   */\n      tag_27\n      jump\t// in\n    tag_26:\n        /* \"#utility.yul\":70:150   */\n      swap3\n      swap2\n      pop\n      pop\n      jump\t// out\n        /* \"#utility.yul\":156:440   */\n    tag_21:\n      0x00\n        /* \"#utility.yul\":275:277   */\n      0x20\n        /* \"#utility.yul\":263:272   */\n      dup3\n        /* \"#utility.yul\":254:261   */\n      dup5\n        /* \"#utility.yul\":250:273   */\n      sub\n        /* \"#utility.yul\":246:278   */\n      slt\n        /* \"#utility.yul\":243:245   */\n      iszero\n      tag_29\n      jumpi\n        /* \"#utility.yul\":291:292   */\n      0x00\n        /* \"#utility.yul\":288:289   */\n      dup1\n        /* \"#utility.yul\":281:293   */\n      revert\n        /* \"#utility.yul\":243:245   */\n    tag_29:\n        /* \"#utility.yul\":334:335   */\n      0x00\n        /* \"#utility.yul\":359:423   */\n      tag_30\n        /* \"#utility.yul\":415:422   */\n      dup5\n        /* \"#utility.yul\":406:412   */\n      dup3\n        /* \"#utility.yul\":395:404   */\n      dup6\n        /* \"#utility.yul\":391:413   */\n      add\n        /* \"#utility.yul\":359:423   */\n      tag_24\n      jump\t// in\n    tag_30:\n        /* \"#utility.yul\":349:423   */\n      swap2\n      pop\n        /* \"#utility.yul\":305:433   */\n      pop\n        /* \"#utility.yul\":233:440   */\n      swap3\n      swap2\n      pop\n      pop\n      jump\t// out\n        /* \"#utility.yul\":446:564   */\n    tag_31:\n        /* \"#utility.yul\":533:557   */\n      tag_33\n        /* \"#utility.yul\":551:556   */\n      dup2\n        /* \"#utility.yul\":533:557   */\n      tag_34\n      jump\t// in\n    tag_33:\n        /* \"#utility.yul\":528:531   */\n      dup3\n        /* \"#utility.yul\":521:558   */\n      mstore\n        /* \"#utility.yul\":511:564   */\n      pop\n      pop\n      jump\t// out\n        /* \"#utility.yul\":570:792   */\n    tag_9:\n      0x00\n        /* \"#utility.yul\":701:703   */\n      0x20\n        /* \"#utility.yul\":690:699   */\n      dup3\n        /* \"#utility.yul\":686:704   */\n      add\n        /* \"#utility.yul\":678:704   */\n      swap1\n      pop\n        /* \"#utility.yul\":714:785   */\n      tag_36\n        /* \"#utility.yul\":782:783   */\n      0x00\n        /* \"#utility.yul\":771:780   */\n      dup4\n        /* \"#utility.yul\":767:784   */\n      add\n        /* \"#utility.yul\":758:764   */\n      dup5\n        /* \"#utility.yul\":714:785   */\n      tag_31\n      jump\t// in\n    tag_36:\n        /* \"#utility.yul\":668:792   */\n      swap3\n      swap2\n      pop\n      pop\n      jump\t// out\n        /* \"#utility.yul\":798:875   */\n    tag_34:\n      0x00\n        /* \"#utility.yul\":864:869   */\n      dup2\n        /* \"#utility.yul\":853:869   */\n      swap1\n      pop\n        /* \"#utility.yul\":843:875   */\n      swap2\n      swap1\n      pop\n      jump\t// out\n        /* \"#utility.yul\":881:1003   */\n    tag_27:\n        /* \"#utility.yul\":954:978   */\n      tag_39\n        /* \"#utility.yul\":972:977   */\n      dup2\n        /* \"#utility.yul\":954:978   */\n      tag_34\n      jump\t// in\n    tag_39:\n        /* \"#utility.yul\":947:952   */\n      dup2\n        /* \"#utility.yul\":944:979   */\n      eq\n        /* \"#utility.yul\":934:936   */\n      tag_40\n      jumpi\n        /* \"#utility.yul\":993:994   */\n      0x00\n        /* \"#utility.yul\":990:991   */\n      dup1\n        /* \"#utility.yul\":983:995   */\n      revert\n        /* \"#utility.yul\":934:936   */\n    tag_40:\n        /* \"#utility.yul\":924:1003   */\n      pop\n      jump\t// out\n\n    auxdata: 0xa26469706673582212207a17a271ec9ea17f4cfc96e93f7b093c664b5e0300df80942b6e09b2d0294d7e64736f6c63430008000033\n}\n",
				"bytecode": {
					"linkReferences": {},
					"object": "608060405260016000556002600155600360025534801561001f57600080fd5b506101f38061002f6000396000f3fe608060405234801561001057600080fd5b50600436106100415760003560e01c80637defb410146100465780638b01e53514610064578063bfc3ef4414610082575b600080fd5b61004e6100a0565b60405161005b9190610181565b60405180910390f35b61006c6100a6565b6040516100799190610181565b60405180910390f35b61008a61012b565b6040516100979190610181565b60405180910390f35b60005481565b60003073ffffffffffffffffffffffffffffffffffffffff1663bfc3ef446040518163ffffffff1660e01b815260040160206040518083038186803b1580156100ee57600080fd5b505afa158015610102573d6000803e3d6000fd5b505050506040513d601f19601f820116820180604052508101906101269190610149565b905090565b60006002905090565b600081519050610143816101a6565b92915050565b60006020828403121561015b57600080fd5b600061016984828501610134565b91505092915050565b61017b8161019c565b82525050565b60006020820190506101966000830184610172565b92915050565b6000819050919050565b6101af8161019c565b81146101ba57600080fd5b5056fea26469706673582212207a17a271ec9ea17f4cfc96e93f7b093c664b5e0300df80942b6e09b2d0294d7e64736f6c63430008000033",
					"opcodes": "PUSH1 0x80 PUSH1 0x40 MSTORE PUSH1 0x1 PUSH1 0x0 SSTORE PUSH1 0x2 PUSH1 0x1 SSTORE PUSH1 0x3 PUSH1 0x2 SSTORE CALLVALUE DUP1 ISZERO PUSH2 0x1F JUMPI PUSH1 0x0 DUP1 REVERT JUMPDEST POP PUSH2 0x1F3 DUP1 PUSH2 0x2F PUSH1 0x0 CODECOPY PUSH1 0x0 RETURN INVALID PUSH1 0x80 PUSH1 0x40 MSTORE CALLVALUE DUP1 ISZERO PUSH2 0x10 JUMPI PUSH1 0x0 DUP1 REVERT JUMPDEST POP PUSH1 0x4 CALLDATASIZE LT PUSH2 0x41 JUMPI PUSH1 0x0 CALLDATALOAD PUSH1 0xE0 SHR DUP1 PUSH4 0x7DEFB410 EQ PUSH2 0x46 JUMPI DUP1 PUSH4 0x8B01E535 EQ PUSH2 0x64 JUMPI DUP1 PUSH4 0xBFC3EF44 EQ PUSH2 0x82 JUMPI JUMPDEST PUSH1 0x0 DUP1 REVERT JUMPDEST PUSH2 0x4E PUSH2 0xA0 JUMP JUMPDEST PUSH1 0x40 MLOAD PUSH2 0x5B SWAP2 SWAP1 PUSH2 0x181 JUMP JUMPDEST PUSH1 0x40 MLOAD DUP1 SWAP2 SUB SWAP1 RETURN JUMPDEST PUSH2 0x6C PUSH2 0xA6 JUMP JUMPDEST PUSH1 0x40 MLOAD PUSH2 0x79 SWAP2 SWAP1 PUSH2 0x181 JUMP JUMPDEST PUSH1 0x40 MLOAD DUP1 SWAP2 SUB SWAP1 RETURN JUMPDEST PUSH2 0x8A PUSH2 0x12B JUMP JUMPDEST PUSH1 0x40 MLOAD PUSH2 0x97 SWAP2 SWAP1 PUSH2 0x181 JUMP JUMPDEST PUSH1 0x40 MLOAD DUP1 SWAP2 SUB SWAP1 RETURN JUMPDEST PUSH1 0x0 SLOAD DUP2 JUMP JUMPDEST PUSH1 0x0 ADDRESS PUSH20 0xFFFFFFFFFFFFFFFFFFFFFFFFFFFFFFFFFFFFFFFF AND PUSH4 0xBFC3EF44 PUSH1 0x40 MLOAD DUP2 PUSH4 0xFFFFFFFF AND PUSH1 0xE0 SHL DUP2 MSTORE PUSH1 0x4 ADD PUSH1 0x20 PUSH1 0x40 MLOAD DUP1 DUP4 SUB DUP2 DUP7 DUP1 EXTCODESIZE ISZERO DUP1 ISZERO PUSH2 0xEE JUMPI PUSH1 0x0 DUP1 REVERT JUMPDEST POP GAS STATICCALL ISZERO DUP1 ISZERO PUSH2 0x102 JUMPI RETURNDATASIZE PUSH1 0x0 DUP1 RETURNDATACOPY RETURNDATASIZE PUSH1 0x0 REVERT JUMPDEST POP POP POP POP PUSH1 0x40 MLOAD RETURNDATASIZE PUSH1 0x1F NOT PUSH1 0x1F DUP3 ADD AND DUP3 ADD DUP1 PUSH1 0x40 MSTORE POP DUP2 ADD SWAP1 PUSH2 0x126 SWAP2 SWAP1 PUSH2 0x149 JUMP JUMPDEST SWAP1 POP SWAP1 JUMP JUMPDEST PUSH1 0x0 PUSH1 0x2 SWAP1 POP SWAP1 JUMP JUMPDEST PUSH1 0x0 DUP2 MLOAD SWAP1 POP PUSH2 0x143 DUP2 PUSH2 0x1A6 JUMP JUMPDEST SWAP3 SWAP2 POP POP JUMP JUMPDEST PUSH1 0x0 PUSH1 0x20 DUP3 DUP5 SUB SLT ISZERO PUSH2 0x15B JUMPI PUSH1 0x0 DUP1 REVERT JUMPDEST PUSH1 0x0 PUSH2 0x169 DUP5 DUP3 DUP6 ADD PUSH2 0x134 JUMP JUMPDEST SWAP2 POP POP SWAP3 SWAP2 POP POP JUMP JUMPDEST PUSH2 0x17B DUP2 PUSH2 0x19C JUMP JUMPDEST DUP3 MSTORE POP POP JUMP JUMPDEST PUSH1 0x0 PUSH1 0x20 DUP3 ADD SWAP1 POP PUSH2 0x196 PUSH1 0x0 DUP4 ADD DUP5 PUSH2 0x172 JUMP JUMPDEST SWAP3 SWAP2 POP POP JUMP JUMPDEST PUSH1 0x0 DUP2 SWAP1 POP SWAP2 SWAP1 POP JUMP JUMPDEST PUSH2 0x1AF DUP2 PUSH2 0x19C JUMP JUMPDEST DUP2 EQ PUSH2 0x1BA JUMPI PUSH1 0x0 DUP1 REVERT JUMPDEST POP JUMP INVALID LOG2 PUSH5 0x6970667358 0x22 SLT KECCAK256 PUSH27 0x17A271EC9EA17F4CFC96E93F7B093C664B5E0300DF80942B6E09B2 0xD0 0x29 0x4D PUSH31 0x64736F6C634300080000330000000000000000000000000000000000000000 "
				},
				"gasEstimates": {
					"creation": {
						"codeDepositCost": "99800",
						"executionCost": "60165",
						"totalCost": "159965"
					},
					"external": {
						"funExt()": "359",
						"outPutExt()": "infinite",
						"pub()": "1107"
					}
				},
				"methodIdentifiers": {
					"funExt()": "bfc3ef44",
					"outPutExt()": "8b01e535",
					"pub()": "7defb410"
				}
			},
			"storageLayout": {
				"storage": [
					{
						"astId": 4,
						"contract": "week5.sol:Ex4_23",
						"label": "pub",
						"offset": 0,
						"slot": "0",
						"type": "t_uint256"
					},
					{
						"astId": 7,
						"contract": "week5.sol:Ex4_23",
						"label": "pri",
						"offset": 0,
						"slot": "1",
						"type": "t_uint256"
					},
					{
						"astId": 10,
						"contract": "week5.sol:Ex4_23",
						"label": "inter",
						"offset": 0,
						"slot": "2",
						"type": "t_uint256"
					}
				],
				"types": {
					"t_uint256": {
						"encoding": "inplace",
						"label": "uint256",
						"numberOfBytes": "32"
					}
				}
			},
			"userdoc": {
				"kind": "user",
				"methods": {},
				"version": 1
			}
		}
	}
}